:100000000C9468020C9461250C9488250C94AF25FF
:100010000C94D6250C9490020C9490020C94FD251F
:100020000C9490020C9490020C9452240C94E122B3
:100030000C9490020C9490020C9490020C949002F8
:100040000C9490020C9490020C9490020C949002E8
:100050000C9490020C9490020C9490020C94242620
:100060000C9490020C94E31F0C9415200C949002B5
:100070000C9490020C9490020C9490020C949002B8
:100080000C9490020C9490020C9490020C949002A8
:100090000C9490020C9490020C9490020C94900298
:1000A0000C9490020C9490020C949002540F680FE0
:1000B000860FA90FB00FD30FF60F1E1119103711AD
:1000C0003C10711052109410B710D310FA10492739
:1000D0004C273B273F2745276D276D276D27502746
:1000E000542758275E2762276D27682700407A101B
:1000F000F35A00A0724E18090010A5D4E80000E8D9
:100100007648170000E40B54020000CA9A3B000036
:1001100000E1F505000080969800000040420F00C5
:100120000000A08601000000102700000000E80386
:10013000000000006400000000000A000000000051
:100140000100000000002C76D888DC674F0823DF10
:10015000C1DFAE59E1B1B796E5E3E453C63AE651E3
:10016000997696E8E6C28426EB898C9B62ED407C0A
:100170006FFCEFBC9C9F40F2BAA56FA5F490055AA6
:100180002AF75C936B6CF9676DC11BFCE0E40D47CB
:10019000FEF520E6B500D0ED902E030094357705EE
:1001A0000080841E080000204E0A000000C80C33A6
:1001B0003333330F986E12831141EF8D2114893B35
:1001C000E65516CFFEE6DB18D1844B381BF77C1DB5
:1001D000901DA4BBE424203284725E228100C9F108
:1001E00024ECA1E53D27252D3137730A2573002521
:1001F00073464F55520025735448524545002573A8
:1002000054574F0025734F4E450025734E455554A6
:1002100052414C00257352455645525345002573B3
:100220005041524B00202020205761726E696E674A
:100230002020202020200A20205370656564203E65
:100240003D20373000584D204368616E6E656C3A32
:100250002025750046616E3A2025750044696D6D54
:1002600065723A202533752525009F9E9D9C9B999C
:1002700099999999999999999999990025303275EF
:100280003A253032753A25303275202573002533F2
:100290007520667420253375BA0052616E67653A21
:1002A000202573206D69004169723A202573206C06
:1002B000627300496E7374204D50473A20257300D5
:1002C0004675656C3A2025732067616C005468722E
:1002D0006F74746C653A2025732525005065646140
:1002E0006C3A20257325250048503A202573005785
:1002F0006865656C2052504D3A202573004D50487A
:100300003A20257500496E74616B653A202573BAF1
:10031000460056616375756D3A20253375206B5024
:1003200061004465632025752C2032302575004E10
:100330006F762025752C2032302575004F63742090
:1003400025752C2032302575005365707420257575
:100350002C2032302575004175672025752C203200
:10036000302575004A756C2025752C203230257596
:10037000004A756E2025752C2032302575004D61A0
:10038000792025752C20323025750041707220258A
:10039000752C2032302575004D61722025752C207A
:1003A00032302575004665622025752C20323025B7
:1003B00075004A616E2025752C20323025750008A5
:1003C0000B00020202010009040000010202000009
:1003D000052400100105240101010424020605245E
:1003E0000600010705810310004009040100020A0C
:1003F00000000007050202400000070583024000DC
:100400000012010002EF0201404123368000010189
:100410000203011201000200000040412336800067
:10042000010102030141726475696E6F204C4C43F7
:100430000041726475696E6F204C656F6E61726405
:100440006F00040309040000000200090F0000030C
:100450000401000C0000000000000000000000008B
:10046000000000000408020110408040102040807D
:1004700040800802040180402010020110801020FA
:1004800040400404040404030405020202020403BD
:10049000020202020606060606060404020202041E
:1004A000000000002300260029002C002F0000007F
:1004B0000000250028002B002E0031000000000065
:1004C000240027002A002D003000E718A31E452035
:1004D00011241FBECFEFDAE0DEBFCDBF11E0A0E0F8
:1004E000B1E0E6E0FAE602C005900D92AA36B10747
:1004F000D9F724E0AAE6B1E001C01D92AF38B207F7
:10050000E1F712E0C8E6D2E004C02197FE010E94A4
:10051000922FC536D107C9F70E9473200C9401357C
:100520000C94000080E00C944125EF92FF920F9311
:100530001F93CF93DF93CDB7DEB760970FB6F894D4
:10054000DEBF0FBECDBFFC0191818081981738F5C9
:10055000A481B581109719F18F01838191E0980FE3
:1005600093837D0190E1899FE00CF11C1124CE0161
:1005700001960E945A2E80E1FE013196D70101902A
:100580000D928A95E1F7F80193818081981301C05B
:100590001382F80181818F5F818381E001C080E057
:1005A00060960FB6F894DEBF0FBECDBFDF91CF913E
:1005B0001F910F91FF90EF9008950F931F93CF938A
:1005C000DF938C01EB010E94272E89818823D9F0CB
:1005D000EC81FD813097B9F08A8191E0980F9A8380
:1005E00090E1899FE00DF11D112480E1D801019077
:1005F0000D928A95E1F78981815089839A8188815A
:10060000981301C01A82C801DF91CF911F910F91F9
:1006100008950F931F93CF93DF93EC018B010E94FA
:10062000272ED80111968C911197882399F0149652
:10063000ED91FC911597309769F012968C91B0E18D
:100640008B9FE00DF11D112480E1DE0101900D92E0
:100650008A95E1F7CE01DF91CF911F910F91089517
:10066000FC019181992349F082818F5F82839150AF
:1006700091839081891301C012820895FC01208525
:10068000211103C0109218020895FC018185809306
:10069000180208951F93CF93DF93FC011285809178
:1006A0001402181789F08091560290915702A09178
:1006B0005802B0915902906280935602909357026B
:1006C000A0935802B0935902808580931602D18579
:1006D000DD3008F0DCE0D093150210931402C385DE
:1006E000C695C093130284858695809312028585F2
:1006F00086958093110210920F0220E030E040E7CF
:1007000051EC6091190270911A0280911B02909134
:100710001C020E949B1B0E94671D0E94141C6C17E8
:1007200040F0C45FC61BC093130211501093140213
:1007300003C0C61BC0931302D350D83028F4809155
:1007400013028F5F80931302809113028D3030F07B
:1007500091E090930F028C508093130280911302CA
:1007600091E0811190E0890F80931302809114022F
:1007700091E0811190E0890F809314028091100222
:10078000681799F08091560290915702A0915802F3
:10079000B091590290648093560290935702A093AF
:1007A0005802B093590260931002809156029091C2
:1007B0005702A0915802B0915902A062809356024C
:1007C00090935702A0935802B0935902DF91CF91B2
:1007D0001F910895FC01838590911702891799F064
:1007E000809317028091560290915702A09158026F
:1007F000B0915902A8608093560290935702A0933B
:100800005802B09359020895FC018085F4E68F9F49
:10081000C00111246FEF70E00E94482F6093250201
:1008200008950F931F93CF93DF93FC01C085D0E011
:10083000DC2FCC278185C80FD11D458550E060E0B5
:1008400070E09A01112700278785482F50E060E06B
:1008500070E0405A564861407109400F511F621FB5
:10086000731F868590E0A0E0B0E0BA2FA92F982FE3
:1008700088278A019B01080F191F2A1F3B1FC901E6
:10088000B8012EE130E040E050E00E94702F8091EE
:10089000230290912402C817D90739F480912102CC
:1008A0009091220282179307C9F0D0932402C0933B
:1008B00023023093220220932102809156029091CC
:1008C0005702A0915802B09159029160809356024C
:1008D00090935702A0935802B0935902DF91CF91A1
:1008E0001F910F910895CF92DF92EF92FF92CF93D5
:1008F000DF93EC014C8550E060E070E0742F6627D8
:10090000552744278D8590E0A0E0B0E0DC019927D1
:100910008827480F591F6A1F7B1F8E8590E0A0E033
:10092000B0E0BA2FA92F982F8827840F951FA61FF4
:10093000B71F2F85BC01CD01620F711D811D911D57
:100940000E94451C6B017C01488550E060E070E02E
:10095000742F662755274427898590E0A0E0B0E0F2
:10096000DC0199278827480F591F6A1F7B1F8A853A
:1009700090E0A0E0B0E0BA2FA92F982F8827840F2D
:10098000951FA61FB71F2B85BC01CD01620F711DDE
:10099000811D911D0E94451C20E03AEB4BE55AE475
:1009A0000E949B1B60931D0270931E0280931F0286
:1009B0009093200220E03AEB4BE55AE4C701B601E0
:1009C0000E949B1B2DE731E245E154E40E94291B64
:1009D0006093190270931A0280931B0290931C0279
:1009E0008091560290915702A0915802B0915902FD
:1009F00080688093560290935702A0935802B09358
:100A00005902DF91CF91FF90EF90DF90CF90089542
:100A1000FC01838590912702891799F08093270222
:100A20008091560290915702A0915802B0915902BC
:100A300080628093560290935702A0935802B0931D
:100A400059020895FC01838587FF1AC08091000137
:100A50009091010180689093010180930001809141
:100A6000560290915702A0915802B09159028260AB
:100A70008093560290935702A0935802B093590264
:100A80008085209100013091010186FF18C0818589
:100A900082FF15C026FD11C0809156029091570229
:100AA000A0915802B0915902A16080935602909390
:100AB0005702A0935802B0935902206414C026FF35
:100AC00011C08091560290915702A0915802B091A6
:100AD0005902A1608093560290935702A093580246
:100AE000B09359022F7B30930101209300010895A8
:100AF000FC01208580912802281709F1803F29F008
:100B000080E190E0A0E0B0E004C080E590E0A0E0EB
:100B1000B0E0409156025091570260915802709196
:100B20005902842B952BA62BB72B809356029093BA
:100B30005702A0935802B0935902209328020895B7
:100B4000FC016185809140026817D1F160934002F9
:100B500070E080E090E00E94431C20E030E04FE72E
:100B600053E40E949B1B20E030E040ED51E40E94E2
:100B7000FA1C60933C0270933D0280933E02909376
:100B80003F0220E030E040E751E40E94FA1C60930D
:100B90002E0270932F028093300290933102809145
:100BA000560290915702A0915802B0915902886064
:100BB0008093560290935702A0935802B093590223
:100BC0000895FF920F931F93CF93DF938C01FC0145
:100BD0002585C4858091000190910101211102C0F9
:100BE000CC2311F0826201C08D7D9093010180932E
:100BF0000001D0E0DC2FCC27C20FD11DD695C795C0
:100C0000D695C795D0935002C0934F02F8018285C4
:100C100090E0982F88272385820F911D64E670E06D
:100C20000E94482F9B0133278091550290E028179E
:100C3000390799F0609355028091560290915702BE
:100C4000A0915802B091590281608093560290930E
:100C50005702A0935802B0935902F09055026F2D9D
:100C600070E080E090E00E94431C20E030E040E72C
:100C700052E40E949B1B20E030E847E757E40E94C3
:100C8000FA1C2CED3FE049EC52E40E949B1B609360
:100C900051027093520280935302909354028091B8
:100CA000000190910101F8E4FF15A8F494FD1BC028
:100CB000409156025091570260915802709159022A
:100CC00060614093560250935702609358027093AC
:100CD0005902906104C023E42F1528F09F7E909361
:100CE0000101809300018091000181FF04C0F8019F
:100CF000668570E002C060E070E080914E0290E096
:100D00008617970761F160934E0280E090E00E94A1
:100D1000431C20E030E04FE753E40E949B1B20E09F
:100D200030E048EC52E40E94FA1C60934A0270934F
:100D30004B0280934C0290934D0280915602909109
:100D40005702A0915802B091590284609068809334
:100D5000560290935702A0935802B0935902F8019B
:100D6000678580914502681761F16093450270E0E4
:100D700080E090E00E94431C20E030E04FE753E425
:100D80000E949B1B20E030E048EC52E40E94FA1CD9
:100D90006093410270934202809343029093440215
:100DA0008091560290915702A0915802B091590239
:100DB00082608093560290935702A0935802B0939A
:100DC0005902BE0180E090E00E94431C20E030E028
:100DD00049EA53E40E94FA1C20E030E244EA55E478
:100DE0000E949B1B609346027093470280934802C7
:100DF00090934902DF91CF911F910F91FF90089539
:100E000026E0FC013896A9E0B2E001900D922A9507
:100E1000E1F70895FC01108210926C0310926D03AB
:100E200010926E0310926F0324E031E0328321832D
:100E30000895CF92DF92EF92FF928091000181FF9F
:100E400043C060913A0270913B0280E090E00E94C2
:100E5000431C23E333E34BE651E40E949B1B24EA4B
:100E600030E745EC50E40E949B1B27EC3BEC42EE44
:100E700053E40E949B1B20E030E040E752E40E94D4
:100E8000FA1C6B017C0120E030E0A9010E94F51CF6
:100E90001816D4F46091550270E080E090E00E9452
:100EA000431C20E030E040E752E40E949B1BA70176
:100EB00096010E949B1B60933202709333028093D1
:100EC00034029093350208C010923202109233021D
:100ED0001092340210923502FF90EF90DF90CF9085
:100EE00008958F929F92AF92BF92CF92DF92EF922E
:100EF000FF92CF93DF93FB01C080D180E280F3802B
:100F0000F8EECF16F7E0DF06E104F10409F0F0C0D7
:100F1000FB01EC0183858F3009F47EC0803121F024
:100F20008B3009F0E5C0CCC0848590E0982F8827ED
:100F30002585820F911D64E670E00E94482F809104
:100F40003A0290913B026817790789F08091560226
:100F500090915702A0915802B091590298608093E5
:100F6000560290935702A0935802B093590270937F
:100F70003B0260933A0280E090E00E94431C23EC25
:100F800031E840E15BE30E94FA1C6B017C010E94A6
:100F90006E260E94431C4B015C0160916C037091B2
:100FA0006D0380916E0390916F030E94431C9B011F
:100FB000AC01C501B4010E94291BA70196010E9442
:100FC000FA1C20E030E04AE754E40E949B1BA70192
:100FD00096010E942A1B9B01AC0160913602709120
:100FE000370280913802909139020E942A1B609347
:100FF0003602709337028093380290933902CE0103
:10100000DF91CF91FF90EF90DF90CF90BF90AF90A6
:101010009F908F900C941907648570E080E090E0B9
:101020000E94431C20E030E040E252E40E94291B71
:1010300026E636E646EE5FE30E94FA1C20E030E04A
:1010400040E052E40E942A1B4B015C0120912902DE
:1010500030912A0240912B0250912C020E94291BB0
:101060006B017C0120E030E0A9010E94F51C1816FC
:101070005CF42DEC3CEC4CEC5DE3C701B6010E9446
:10108000F51C18165CF034C02DEC3CEC4CEC5DEB20
:10109000C701B6010E94961B87FF2AC080922902D1
:1010A00090922A02A0922B02B0922C0280915602BA
:1010B00090915702A0915802B0915902946010C0CB
:1010C000848590912D02891799F080932D0280914B
:1010D000560290915702A0915802B0915902926025
:1010E0008093560290935702A0935802B0935902EE
:1010F000DF91CF91FF90EF90DF90CF90BF90AF90B6
:101100009F908F9008950F931F93CF93DF93CDB748
:10111000DEB760970FB6F894DEBF0FBECDBF8B0170
:10112000CE0101960E94272E80EE97E0A0E0B0E06D
:1011300089839A83AB83BC8381E08D8388E0888731
:1011400083E0898782E28A87F80180818C87BE01EB
:101150006F5F7F4F8AE592E00E949502882351F0ED
:101160000E946E2660936C0370936D0380936E03F0
:1011700090936F0360960FB6F894DEBF0FBECDBF9D
:10118000DF91CF911F910F910895FC01108261E0D2
:1011900082E10E946E2762E083E10E946E2761E097
:1011A00086E10E946E2762E087E10E946E2760E080
:1011B00082E10E94AA2760E086E10C94AA27CF93DF
:1011C000DF93FB014081518162817381443155403D
:1011D0006105710539F4EC010E946E2668837983FC
:1011E0008A839B83DF91CF910895EF92FF920F93B3
:1011F0001F93CF93DF932091000130910101A9014A
:10120000447052704430524009F08AC0EC012B7F88
:101210003D7F30930101209300010E946E26DC0186
:10122000CB01805F984DAF4FBF4F88839983AA83CE
:10123000BB83C5E061E08DE00E94AA2768EC70E006
:1012400080E090E00E949F2660E08DE00E94AA2747
:1012500068EC70E080E090E00E949F26C15051F75A
:1012600088E493E00E94FA2D14E1E12E15E0F12EBE
:1012700000E010E024E135E040E050E060E088E488
:1012800093E00E949F2A84E493E00E94892D6AE003
:1012900070E080E090E00E949F26729840E050E06D
:1012A00062E972E080E00E94F12483B7817F84606C
:1012B00083BFF89483B7816083BF78948091640082
:1012C000816080936400889564E070E080E090E045
:1012D0000E949F2683B78E7F83BF809164008E7F9C
:1012E0008093640064E070E080E090E00E949F26BC
:1012F00088E493E00E94BA2D18EEE12E17E0F12E5B
:1013000000E010E024E135E040E050E060E088E4F7
:1013100093E00E949F2A84E493E00E94BA2D729A7F
:10132000DF91CF911F910F91FF90EF900895EF9271
:10133000FF920F931F93CF93DC012D913C91232BB0
:1013400031F17B018C0188E1FB0111928A95E9F76B
:10135000C0E0D8018D919C91DC01ED91FC9104805D
:10136000F581E02D0995892BA1F0F801808191810B
:10137000DC01ED91FC910680F781E02D0995C831E3
:1013800040F7F701EC0FF11D8083CF5FE2CF80E0E3
:1013900001C08C2FCF911F910F91FF90EF90089576
:1013A000FC0161157105F1F0DB019C91913B59F055
:1013B000923B79F0903BB1F492819061928361E02D
:1013C0008DE00C94AA278091000190910101906218
:1013D00005C080910001909101019F7D90930101D2
:1013E0008093000108950F931F93CF93DF93CDB7A0
:1013F000DEB760970FB6F894DEBF0FBECDBF6115A4
:10140000710509F447C0483008F444C08B01CE018F
:1014100001960E94272EF80181818D8382818E831F
:1014200083818887848190E0A0E0B0E0782F6627F0
:10143000552744279581892F90E0A0E0B0E0DC019A
:1014400099278827840F951FA61FB71F2781820F12
:10145000911DA11DB11D468150E060E070E0762F26
:10146000652F542F4427840F951FA61FB71F89830C
:101470009A83AB83BC8388E03896DE01199601908D
:101480000D928A95E1F7BE016F5F7F4F8AE592E08A
:101490000E94950260960FB6F894DEBF0FBECDBFD6
:1014A000DF91CF911F910F910895EF92FF920F93CB
:1014B0001F93FC01DB011097F1F14430E1F5119627
:1014C0008C9111979281882311F0926001C09D7FC9
:1014D000928312968C911297882311F0946001C028
:1014E0009B7F928313968C91882311F0986001C0A2
:1014F000977F928391FF1FC060E088E493E00E9491
:10150000E52961E070E080E090E00E949F26E12CF8
:10151000F12C870120E030E0A90160E088E493E04D
:101520000E949F2A61E088E493E01F910F91FF9051
:10153000EF900C94E5291F910F91FF90EF90089583
:101540008F929F92AF92BF92CF92DF92EF92FF92D3
:101550000F931F93CF93DF936115710509F4A7C013
:10156000EB018B80912CA12CB12C782D662755276F
:1015700044278C80912CA12CB12C540199248824CF
:10158000840E951EA61EB71E8E81A5019401280FFC
:10159000311D411D511DDA01C9018D80912CA12CF5
:1015A000B12CBA2CA92C982C8824880E991EAA1E1E
:1015B000BB1ECF80D12CE12CF12C7C2D662755272A
:1015C0004427C884D12CE12CF12C7601DD24CC24D5
:1015D000C40ED51EE61EF71E8A85A7019601280FA8
:1015E000311D411D511DC984D12CE12CF12CFE2C43
:1015F000ED2CDC2CCC24C20ED31EE41EF51E8981FA
:101600008230C1F0833071F1813009F050C060E068
:1016100088E493E00E94E52961E070E080E090E0DA
:101620000E949F2687017601A50194016A8188E4C2
:1016300093E02AC060E084E493E00E94E52961E041
:1016400070E080E090E00E949F2687017601A5016E
:1016500094016A8184E493E00E949F2A61E084E41B
:1016600093E017C060E080E493E00E94E52961E028
:1016700070E080E090E00E949F2687017601A5013E
:1016800094016A8180E493E00E949F2A61E088E4EB
:1016900093E0DF91CF911F910F91FF90EF90DF903A
:1016A000CF90BF90AF909F908F900C94E529DF91E1
:1016B000CF911F910F91FF90EF90DF90CF90BF904F
:1016C000AF909F908F900895CF92DF92EF92FF920C
:1016D0000F931F93CF93DF93EC017C0182E0E80E20
:1016E000F11C87016E01E2E6CE0ED11CC8010E94FA
:1016F000272E005F1F4F0C151D05C1F786E0F8016E
:101700008083118212821382F582E48281E08883D1
:1017100084E08983FE01E859FF4F1082B896108259
:1017200010927C0310927D0310927E0310927F032F
:10173000109278031092790310927A0310927B032F
:10174000C759DF4F19821882DF91CF911F910F91F6
:10175000FF90EF90DF90CF9008958F929F92AF927D
:10176000BF92CF92DF92EF92FF920F931F938C0163
:101770000E946E26C0907C03D0907D03E0907E0393
:10178000F0907F034601570120E3820E911CA11CBB
:10179000B11CF801E859FF4F208186169706A8066C
:1017A000B90610F4226001C02D7F20834601570145
:1017B00028EC820E911CA11CB11C20818616970674
:1017C000A806B90610F4246001C02B7F208320E115
:1017D000D20EE11CF11CC616D706E806F90690F4F5
:1017E000C0905602D0905702E0905802F0905902F3
:1017F0006894E1F8C0925602D0925702E0925802E3
:10180000F0925902208123FF29C0D801A759BF4F68
:101810004D915C91C0907803D0907903E0907A0369
:10182000F0907B03C40ED51EE11CF11CC616D70632
:10183000E806F90698F4277E20830091560210915D
:1018400057022091580230915902226000935602AB
:101850001093570220935802309359020091560278
:1018600010915702209158023091590222FF33C043
:10187000C0907403D0907503E0907603F0907703E6
:10188000C114D104E104F10479F4DC01CB018854E2
:10189000944FAF4FBF4F8093740390937503A09301
:1018A0007603B093770317C06C157D058E059F05F1
:1018B00090F02B7F226000935602109357022093E2
:1018C00058023093590210927403109275031092CB
:1018D0007603109277031F910F91FF90EF90DF90A6
:1018E000CF90BF90AF909F908F9008950F931F93CC
:1018F000CF93DF93CDB7DEB760970FB6F894DEBF16
:101900000FBECDBF8B01CE0101960E94272E85EF21
:1019100090EAA0E3B0E189839A83AB83BC8386E03D
:10192000888782E08D8398E09E838A87F801808192
:10193000811102C090E601C092E69B87882311F0D6
:1019400082E08C8785E18E87BE016F5F7F4F8AE5DD
:1019500092E00E94950260960FB6F894DEBF0FBE2B
:10196000CDBFDF91CF911F910F9108952F923F929C
:101970004F925F926F927F928F929F92AF92BF929F
:10198000CF92DF92EF92FF920F931F93CF93DF934B
:10199000CDB7DEB760970FB6F894DEBF0FBECDBFF0
:1019A0009C018B01672BF1F0FA0180818432D0F425
:1019B000863038F066E00E943C2F77247394780ECE
:1019C00002C0772473946901F2E6CF0ED11CF601B0
:1019D0008181672D70E0680F711D808190E086170E
:1019E000970714F480E07AC07A01C90121E02983C5
:1019F000BE016F5F7F4F0E94760C0E946E26DC0155
:101A0000CB018196A11DB11D80937C0390937D0332
:101A1000A0937E03B0937F03CE0101960E94272EF0
:101A200082E08D8388E08E8345EF50EC60E370E1C7
:101A300049835A836B837C83888787E289877A8688
:101A400044244394512C5E01FBE0AF0EB11C86E0B0
:101A5000282E4E0189E0880E911C94E0392EF50164
:101A6000822D11928A95E9F7F7016080652D70E06B
:101A70009B012B5F3F4F862D90E0281739072CF0F4
:101A80006518F6E0F61530F002C026E0622E462D0D
:101A900050E002C046E050E0600F711FC5010E9497
:101AA000CE2F560C81E078120EC0BE016F5F7F4FC3
:101AB000C6010E949502E6E2E98743944A867414BF
:101AC00070F681E00BC0FE0131968085811101C066
:101AD00030863196E815F905C1F7E7CF60960FB665
:101AE000F894DEBF0FBECDBFDF91CF911F910F9154
:101AF000FF90EF90DF90CF90BF90AF909F908F902E
:101B00007F906F905F904F903F902F900895CF926D
:101B1000DF92EF92FF921F93CF93DF937C01A8E6B1
:101B2000EA0EF11CD701EC91E4FD07C06901EC015C
:101B30000E94B60C182F811102C010E015C00E943F
:101B40006E26609378037093790380937A03909361
:101B50007B03F60180819181C759DF4F9983888388
:101B6000D7018C9188608C93812FDF91CF911F9149
:101B7000FF90EF90DF90CF900895EF92FF920F9338
:101B80001F93CF93DF9300D01F92CDB7DEB78C01A8
:101B90000E946E268091560290915702A0915802A1
:101BA000B091590294FF37C0809125021F928F9304
:101BB0008CE592E09F938F931F9281E18F93780140
:101BC0002BE6E20EF11CFF92EF920E94D72FF80154
:101BD000E057FF4F808320ED37E03A8329838B83E2
:101BE0009E012F5F3F4FAE014D5F5F4FB701C801B0
:101BF0000E94870D0FB6F894DEBF0FBECDBF8823BD
:101C000051F08091560290915702A0915802B091E4
:101C100059029F7EBBC08091560285FF37C08091DC
:101C200027021F928F9384E592E09F938F931F92D8
:101C300081E18F9378013BE6E30EF11CFF92EF9276
:101C40000E94D72FF801E057FF4F808320ED37E047
:101C50003A8329838B839E012F5F3F4FAE014D5FF7
:101C60005F4FB701C8010E94870D0FB6F894DEBF21
:101C70000FBECDBF882351F080915602909157023C
:101C8000A0915802B09159028F7D80C08091560278
:101C900090915702A0915802B0915902A3FF37C00A
:101CA000809117021F928F9385E492E09F938F9308
:101CB0001F9281E18F9378013BE6E30EF11CFF92C6
:101CC000EF920E94D72FF801E057FF4F808320ED5D
:101CD00037E03A8329838B839E012F5F3F4FAE010C
:101CE0004D5F5F4FB701C8010E94870D0FB6F89492
:101CF000DEBF0FBECDBF882351F080915602909178
:101D00005702A0915802B0915902A77F3FC080911D
:101D1000560290915702A0915802B0915902A4FD29
:101D200002C080E03CC078013BE6E30EF11C85E296
:101D300092E09F938F931F9284E28F93FF92EF9292
:101D40000E94D72FF801E057FF4F808320EA3FE041
:101D50003A8329838B839E012F5F3F4FAE014D5FF6
:101D60005F4FB701C8010E94870D0F900F900F9031
:101D70000F900F900F908823A1F2809156029091BE
:101D80005702A0915802B0915902AF7E809356023B
:101D900090935702A0935802B093590281E00F909C
:101DA0000F900F90DF91CF911F910F91FF90EF90C7
:101DB0000895809128028033D1F038F48031A1F069
:101DC0008032C1F48EEF91E00895803D51F0803E65
:101DD00029F0803479F48FEE91E0089584E192E067
:101DE00008958AE092E0089584E092E0089586EFF5
:101DF00091E008958EE192E00895AF92BF92CF9264
:101E0000DF92EF92FF920F931F93CF93DF93CDB7A3
:101E1000DEB768970FB6F894DEBF0FBECDBF5B018B
:101E200062EB73E07A83698365EA73E07C836B839A
:101E300068E973E07E836D836BE873E078876F8376
:101E40006EE773E07A87698761E773E07C876B8769
:101E500064E673E07E876D8767E573E0788B6F8754
:101E600069E473E07A8B698B6CE373E07C8B6B8B3A
:101E70006FE273E07E8B6D8B62E273E0788F6F8B25
:101E800062E1D5011D926A95E9F7DA01EC914E2FD6
:101E900050E0FA013197E131F10508F006C269011D
:101EA000EA5AFF4F0C94922F0E94D90E2DE231E096
:101EB0003F932F939F938F931F9282E18F93BF92B3
:101EC000AF920E94D72F80E190E0A0E0B0E013C075
:101ED00080912D021F928F9382E193E09F938F93C5
:101EE0001F9282E18F93BF92AF920E94D72F80E022
:101EF00092E0A0E0B0E0F60180839183A283B383F7
:101F00000FB6F894DEBF0FBECDBFD5C17C01ABE6E6
:101F1000EA0EF11C6091290270912A0280912B0235
:101F200090912C02870121E04BEF0E94982FFF92A5
:101F3000EF9285E093E09F938F931F9282E18F93BE
:101F4000BF92AF920E94D72F80E094E0A0E0B0E073
:101F5000D2CF809155021F928F938DEF92E015C0E2
:101F60007C01ABE6EA0EF11C6091510270915202C5
:101F70008091530290915402870121E04FEF0E941B
:101F8000982FFF92EF928FEE92E09F938F931F9284
:101F900082E18F93BF92AF920E94D72F81E090E0B1
:101FA000A0E0B0E0A8CF7C01ABE6EA0EF11C6091A6
:101FB0004602709147028091480290914902870140
:101FC00021E04BEF0E94982FFF92EF9288EE92E073
:101FD0009F938F931F9282E18F93BF92AF920E9443
:101FE000D72F84E090E0A0E0B0E085CF7C01ABE6A5
:101FF000EA0EF11C6091410270914202809143020D
:1020000090914402870122E04BEF0E94982FFF92AB
:10201000EF928CED92E09F938F931F9282E18F93CA
:10202000BF92AF920E94D72F82E090E0A0E0B0E094
:1020300062CF7C01ABE6EA0EF11C60914A0270911E
:102040004B0280914C0290914D02870122E04BEFB0
:102050000E94982FFF92EF928DEC92E09F938F93C6
:102060001F9282E18F93BF92AF920E94D72F80E0A0
:1020700090E8A0E0B0E03FCF7C01ABE6EA0EF11CB7
:1020800060913C0270913D0280913E0290913F022E
:10209000870122E04BEF0E94982FFF92EF9280EC95
:1020A00092E057C07C01ABE6EA0EF11C609136026B
:1020B000709137028091380290913902870122E0B5
:1020C0004BEF0E94982FFF92EF9287EA92E09F9346
:1020D0008F931F9282E18F93BF92AF920E94D72F6E
:1020E00084C07C01ABE6EA0EF11C60913202709173
:1020F00033028091340290913502870122E04BEF48
:102100000E94982FFF92EF9283EB92E09F938F9320
:102110001F9282E18F93BF92AF920E94D72F80E0EF
:1021200098E0A0E0B0E0E7CE7C01ABE6EA0EF11C5F
:1021300060912E0270912F028091300290913102B5
:10214000870121E04BEF0E94982FFF92EF928AE9DE
:1021500092E09F938F931F9282E18F93BF92AF92F1
:102160000E94D72F88E090E0A0E0B0E0C4CE80913C
:1021700024028F93809123028F93809122028F9368
:10218000809121028F938EE892E09F938F931F920C
:1021900082E18F93BF92AF920E94D72F80E091E0AF
:1021A000A0E0B0E0A8CE80910F02811103C08AE2C6
:1021B00091E002C087E291E09F938F93809111029A
:1021C0001F928F93809112021F928F93809113021E
:1021D0001F928F938CE792E09F938F931F9282E1DF
:1021E0008F93BF92AF920E94D72F80E090E0A0E241
:1021F000B0E081CE809116021F928F9380911402DD
:102200001F928F93E0911502F0E03197EE0FFF1FC0
:10221000A1E0B0E0AC0FBD1FEA0FFB1F81818F93DF
:1022200080818F931F9282E18F93BF92AF920E9421
:10223000D72F80E090E2A0E0B0E05DCE8091450233
:10224000A4E18A9FC00111246FEF70E00E945C2F0F
:10225000623108F061E1462F50E06AE672E0C501A4
:102260000E94B82F82E090E0A0E0B0E018C080911A
:102270004E02F4E18F9FC00111246FEF70E00E94C5
:102280005C2F623108F061E1462F50E06AE672E0AF
:10229000C5010E94B82F80E090E8A0E0B0E0F60110
:1022A00080839183A283B38306C0D9011D921D92BE
:1022B0001D921C92139768960FB6F894DEBF0FBE5E
:1022C000CDBFDF91CF911F910F91FF90EF90DF90E5
:1022D000CF90BF90AF9008958F929F92AF92BF9290
:1022E000EF92FF920F931F93CF93DF93CDB7DEB79B
:1022F000AD970FB6F894DEBF0FBECDBF8C010E9424
:10230000BD0D811192C0F801E859FF4F808183FD16
:102310008CC019A61AA61BA61CA61DA21EA21FA22F
:1023200018A65E0123E1A20EB11C9E01275D3F4F5E
:10233000A801B501C8010E94FD0E9E012B5D3F4F13
:10234000A8014F5F5F4FCE0101964C01BC01C8014F
:102350000E94FD0E78019BE6E90EF11C9F928F9280
:10236000BF92AF9286EE91E09F938F931F9284E28B
:102370008F93FF92EF920E94D72F0FB6F894DEBF93
:102380000FBECDBF853208F084E2F801E057FF4F61
:10239000808389A49AA4ABA4BCA44DA15EA16FA123
:1023A00078A5482959296A297B29626080905602BC
:1023B00090905702A0905802B0905902482159219C
:1023C0006A217B21452B462B472B79F18DA7AE0146
:1023D000435D5F4FB701C8010E94B60C882329F105
:1023E00049A55AA56BA57CA58DA19EA1AFA1B8A5B5
:1023F000842B952BA62BB72BA26080959095A0954A
:10240000B0954091560250915702609158027091D8
:10241000590284239523A623B723809356029093D1
:102420005702A0935802B0935902AD960FB6F89494
:10243000DEBF0FBECDBFDF91CF911F910F91FF90F7
:10244000EF90BF90AF909F908F900895EF92FF9282
:102450000F931F93CF93DF93CDB7DEB7A0970FB63F
:10246000F894DEBF0FBECDBF209100013091010175
:1024700033FF34C08C010E94AD0B780182E6E80E78
:10248000F11CF70181813696882321F0808181FD3E
:1024900008C024C0808182FF21C0C8010E946C1145
:1024A0001DC0B701CE0101960E940903BE016F5FF6
:1024B0007F4F8AE592E00E949502882379F0B70168
:1024C000CE0141960E94DD020E946E2660937C033D
:1024D00070937D0380937E0390937F03A0960FB645
:1024E000F894DEBF0FBECDBFDF91CF911F910F914A
:1024F000FF90EF9008950F931F93CF938B01C82FF8
:10250000CC23C1F061E08DE00E94AA27F801608130
:10251000718180E090E00E949F2660E08DE00E9443
:10252000AA27F8016081718180E090E00E949F26D7
:10253000C150E6CFCF911F910F910895EF92FF9276
:102540000F931F93CF93DF9300D0CDB7DEB70091E9
:1025500000011091010102FD2BC07B01BC01685FED
:102560007F4F48E050E0C7010E94C12F30916A01BF
:10257000F7012081892B11F4232B02C020952323FE
:1025800020936A0180916A01873791F410926A0161
:1025900004621A60109301010093000184E690E048
:1025A0009A838983BE016F5F7F4F83E00E947B1215
:1025B0000F900F90DF91CF911F910F91FF90EF90AF
:1025C0000895FC0140815181628173814034F0E2C1
:1025D0005F07F4E06F07F0E17F0709F48BC008F0B4
:1025E00043C04034E0E25E07E2E06E07E0E17E07D0
:1025F00009F48CC0C0F44034510525E062072CE09A
:10260000720709F479C0403BE0EA5E076105E0E14A
:102610007E0709F49AC04935504E6105710509F0ED
:10262000A6C00C943E03403420E6520722E0620725
:1026300020E1720709F45AC038F440345044624033
:10264000704109F450C00895403420E6520723E059
:10265000620720E1720709F461C0403450486340CA
:10266000704109F465C008954739F0E65F07FAE064
:102670006F07F0E17F0709F44FC0C0F44034E0EC8D
:102680005E07E4E06E07E0E17E07C1F14034F0EE62
:102690005F07F5E06F07F0E17F0791F14034504AA2
:1026A0006440704109F063C00C9478054739E0EC50
:1026B0005E07EAE06E07E0E17E0761F130F447393A
:1026C000504A6A40704121F108954939E0E85E07B7
:1026D000ECE06E07E0E17E07A9F04938504E614317
:1026E000704191F008956FE371E002C067E371E01B
:1026F0000C949E120C9400070C94E1050C94A00518
:102700000C9422050C9408050C94EA030C94040420
:102710000C9473040C9411040C944A03FC019085EE
:1027200080912602992311F080680CC0877F0AC02F
:10273000FC01908580912602992311F0816002C0EE
:102740008E7F809580932602089580915602909105
:102750005702A0915802B0915902806480935602AA
:1027600090935702A0935802B09359020895089588
:10277000EAE5F2E0118212821382809100019091C9
:1027800001018F7D90930101809300011092560208
:1027900010925702109258021092590208950F9306
:1027A0001F93CF93DF93209100013091010131FFFE
:1027B00019C0EC010E946E26088119812A813B8193
:1027C000005F184D2F4F3F4F06171707280739078F
:1027D00048F40E94B813CE01DF91CF911F910F9161
:1027E0000C94F508DF91CF911F910F910895EF920E
:1027F000FF920F931F93CF93DF93CDB7DEB7609710
:102800000FB6F894DEBF0FBECDBF7C018B01CE01A9
:1028100001960E94272E80E490E0ADE0B0E189832C
:102820009A83AB83BC8382E08D8388E08E8384E0CF
:102830008887F70180818987BE016F5F7F4F8AE5B6
:1028400092E00E949502882331F1F7012081809166
:102850000001909101012223C9F09460909301013D
:10286000809300010E946E26F80120813181DC01F5
:10287000CB01820F931FA11DB11D80937003909314
:102880007103A0937203B093730305C09B7F909371
:1028900001018093000160960FB6F894DEBF0FBE71
:1028A000CDBFDF91CF911F910F91FF90EF900895D1
:1028B0000F931F93CF93DF9300D01F92CDB7DEB756
:1028C0000E946E26209100013091010132FF17C055
:1028D0000091700310917103209172033091730382
:1028E000061717072807390750F41A8219821B8226
:1028F000BE016F5F7F4FCE0103960E94F7130F90CA
:102900000F900F90DF91CF911F910F910895CF936A
:10291000DF9300D01F92CDB7DEB785FF12C0809144
:10292000560290915702A0915802B09159028064CA
:102930008093560290935702A0935802B093590285
:102940005DC0982F9071282F287083FF27C09111A8
:1029500025C090917801292F30E02131310514F400
:102960009F5F01C091E09093780140915602509191
:10297000570260915802709159026260409356026A
:1029800050935702609358027093590286FF36C0E5
:1029900088EB9BE09A83898382E028C0992371F1B8
:1029A00021112CC090917901292F30E0213131057E
:1029B00014F49F5F01C091E0909379014091560219
:1029C0005091570260915802709159026260409391
:1029D000560250935702609358027093590286FF33
:1029E0000DC088EB9BE09A83898383E08B83BE01D3
:1029F0006F5F7F4FCE0103960E94F7130F900F90E9
:102A00000F90DF91CF9108958F929F92AF92BF92D6
:102A1000CF92DF92EF92FF920F931F93CF93DF93AA
:102A20002091000122FD03C0FC011082CCC0EC010A
:102A300083E10E94D927182F87E10E94D927082F08
:102A40000E946E26633071058105910528F4188275
:102A5000113089F420E005C0113069F4288120FD8F
:102A60000AC02160288360936003709361038093A0
:102A70006203909363030130A1F4288121FD0AC011
:102A80002260288360935C0370935D0380935E03F0
:102A900090935F03113039F4888182FD79C084609E
:102AA00076C01130D1F1111138C0388130FF35C0F6
:102AB000232F2E7F2883C0906003D0906103E09085
:102AC0006203F09063034B015C018C189D08AE0813
:102AD000BF08750164018092580390925903A09237
:102AE0005A03B0925B0346E9841A9108A108B10821
:102AF000E3EF8E16E2E19E06A104B10460F4F8EE65
:102B0000CF16F3E0DF06E104F10410F4286001C001
:102B10002864288302C0367F3883011139C0388188
:102B200031FF42C0232F2D7F2883C0905C03D090BB
:102B30005D03E0905E03F0905F03DC01CB018C1934
:102B40009D09AE09BF098093540390935503A09348
:102B50005603B09357036C017D0146E9C41AD108AE
:102B6000E108F108E3EFCE16E2E1DE06E104F1044C
:102B700050F4883E9340A105B10510F4206101C0D6
:102B80002065288311C03D7E38830EC08B7D8883ED
:102B90008881982F9770B9F48830A8F00E94871424
:102BA0008881877888830FC01111F2CF888182FFD6
:102BB000EFCF982F9B7F9883282F2871283131F7EA
:102BC00090629883E5CFDF91CF911F910F91FF9095
:102BD000EF90DF90CF90BF90AF909F908F9008952F
:102BE0008F929F92AF92BF92CF92DF92EF92FF921D
:102BF000CF93DF93CDB7DEB760970FB6F894DEBF03
:102C00000FBECDBFC82EE62ED42EF22ECE010196D9
:102C10000E94272E80EB90EAA0E0B0E189839A839E
:102C2000AB83BC8382E08D8388E08E83888784E2D7
:102C300089878A876C2D70E080E090E00E94431CB9
:102C40002DE33EE942E15FE30E949B1B4B015C01E7
:102C500020E030E0A9010E94F51C20E030E040E0D7
:102C60005FE387FD05C0C501B4010E942A1B04C0B3
:102C7000C501B4010E94291B0E940D1C6B876D2D9C
:102C800070E080E090E00E94431C2DE33EE942E1C9
:102C90005FE30E949B1B4B015C0120E030E0A90137
:102CA0000E94F51C20E030E040E05FE387FD05C0B6
:102CB000C501B4010E942A1B04C0C501B4010E94D1
:102CC000291B0E940D1C6C876E2D70E080E090E047
:102CD0000E94431C2DE33EE942E15FE30E949B1BFF
:102CE0004B015C0120E030E0A9010E94F51C20E0CE
:102CF00030E040E05FE387FD05C0C501B4010E94FC
:102D00002A1B04C0C501B4010E94291B0E940D1C8E
:102D10006D876F2D70E080E090E00E94431C2DE3F2
:102D20003EE942E15FE30E949B1B6B017C0120E0D6
:102D300030E0A9010E94F51C20E030E040E05FE3B4
:102D400087FD05C0C701B6010E942A1B04C0C70148
:102D5000B6010E94291B0E940D1C6E878FEF888B85
:102D6000BE016F5F7F4F8AE592E00E9495026096F8
:102D70000FB6F894DEBF0FBECDBFDF91CF91FF90AD
:102D8000EF90DF90CF90BF90AF909F908F9008957D
:102D90000F931F93CF93DF93CDB7DEB760970FB636
:102DA000F894DEBF0FBECDBF0E946E26009168036F
:102DB0001091690320916A0330916B03011511058D
:102DC0002105310571F4DC01CB01985FAF4FBF4F96
:102DD0008093680390936903A0936A03B0936B0395
:102DE00040C00617170728073907D8F5CE01019606
:102DF0000E94272E88E08E8382E08D8340EB50E492
:102E000061E070E149835A836B837C839CE79987F7
:102E10008887BE016F5F7F4F8AE592E00E9495022E
:102E20008823F9F0109268031092690310926A03E4
:102E300010926B038091560290915702A091580214
:102E4000B09159028F7B8093560290935702A093C2
:102E50005802B09359022EE24EE26EE28EE20E94D8
:102E6000F01560960FB6F894DEBF0FBECDBFDF91B0
:102E7000CF911F910F910895CF92DF92EF92FF9221
:102E80000F931F93CF93DF9300D000D0CDB7DEB761
:102E90008C019091000192FF43C040911F0150911D
:102EA0002001609121017091220149835A836B8333
:102EB0007C8395FF2BC0F80181819281C0906C03C7
:102EC000D0906D03E0906E03F0906F03C80ED91E92
:102ED000E11CF11C0E946E26C616D706E806F9060C
:102EE000A8F4F801808161E070E06C0F7D1F680F2D
:102EF000711DC8010E948308F8018081282F30E0ED
:102F0000243031055CF48F5FF80180838091560294
:102F100086FF06C0C8010E94C81602C080E0F4CF38
:102F20000F900F900F900F90DF91CF911F910F9105
:102F3000FF90EF90DF90CF900895EF92FF920F9364
:102F40001F9362E070E080E090E00E949F2640E0E6
:102F500052EC61E070E080E893E00E949D1E26E064
:102F600040E051EE60E070E081ED93E00E947E1F52
:102F70006A9A729A61E08DE00E946E2760E08DE0AF
:102F80000E94AA2761E088E00E946E2760E088E046
:102F90000E94AA2760E083E00E946E2760E082E042
:102FA0000E946E2760E087E00E946E2761E084E067
:102FB0000E946E2761E08CE00E946E2761E08BE04A
:102FC0000E946E2761E089E00E946E2761E08AE03E
:102FD0000E946E2761E085E00E946E2760E084E039
:102FE0000E94AA2760E08CE00E94AA2760E08BE0A4
:102FF0000E94AA2788E493E00E940E2861E070E016
:1030000088E493E00E94B42964EF71E088E493E0DF
:103010000E94492861E088E493E00E94942924E01A
:1030200044E060E688E493E00E94722920E240E2F6
:1030300069E288E493E00E94722918EEE12E17E01D
:10304000F12E00E010E024E135E040E050E060E0E7
:1030500088E493E00E949F2A61E088E493E00E9464
:10306000E52984E493E00E940E2861E070E084E4A6
:1030700093E00E94B42961E270E084E493E00E944E
:10308000492861E084E493E00E94942924E044E02C
:1030900060E684E493E00E94722961E084E493E0B6
:1030A0000E94E52980E493E00E940E2861E070E030
:1030B00080E493E00E94B42961E080E493E00E9400
:1030C000942964E670E080E090E00E949F2662E030
:1030D00080E493E01F910F91FF90EF900C94E5290D
:1030E0000E946E266F3C7A488F4F9F4F08F46EC047
:1030F00010927C0310927D0310927E0310927F0346
:10310000109278031092790310927A0310927B0345
:103110001092740310927503109276031092770345
:103120001092700310927103109272031092730345
:1031300010926C0310926D0310926E0310926F0345
:10314000109268031092690310926A0310926B0345
:103150001092640310926503109266031092670345
:103160001092600310926103109262031092630345
:1031700010925C0310925D0310925E0310925F0345
:10318000109258031092590310925A0310925B0345
:103190001092540310925503109256031092570345
:1031A0001092500310925103109252031092530345
:1031B00010924C0310924D0310924E0310924F0345
:1031C0000E946E26672B682B692BD1F708950F9309
:1031D0001F93CF93DF9321E044E069E088E493E01C
:1031E0000E94092822E04CE06AE084E493E00E9417
:1031F000092823E04BE065E080E493E00E94092881
:10320000C0EED2E000E413E0CE010E94272E6096CB
:103210000C171D07C9F7C0E6D2E0CE010E94272E89
:10322000609682E0C03ED807C1F788E080935A02DA
:1032300010925B0210925C0210925D0280E692E0B6
:1032400090935F0280935E0288E791E00E94640B96
:1032500085E791E00E940A0784E791E00E94C50893
:10326000109270011092710110927201109273010C
:1032700010926D0110926C0110926E01DF91CF914E
:103280001F910F910895FC016115710551F1DB014A
:103290009C91933089F028F4913041F0923049F0BC
:1032A0000895903B61F0913B89F00895CF010C9413
:1032B000550ACF010C94F309CF010C94A00A828126
:1032C0008061828361E08DE00C94AA27423048F04F
:1032D00050E0415051096F5F7F4F81ED93E00C94B6
:1032E000862008950F931F93CF93DF93CDB7DEB75A
:1032F00068970FB6F894DEBF0FBECDBF8C01FC01FE
:10330000828184FF21C080E893E00E94DD1D892B2B
:1033100051F080E893E00E94ED1D682F81ED93E06D
:103320000E94151FF0CF81ED93E00E94B81E892BFB
:1033300009F440C081ED93E00E94D21E682F80E81E
:1033400093E00E94B31DEFCF80E893E00E94DD1D63
:10335000892B91F080E893E0F80191838083BE018E
:103360006F5F7F4FC8010E949709482FBE016F5FB2
:103370007F4FC8010E94431981ED93E00E94B81E5F
:10338000892BC1F068E070E080E090E00E949F2609
:1033900081ED93E0F80191838083BE016F5F7F4FE1
:1033A000C8010E949709482FBE016F5F7F4FC80177
:1033B0000E94D00968960FB6F894DEBF0FBECDBF4D
:1033C000DF91CF911F910F910895CF93DF93FB0170
:1033D0002481243008F07EC0FC01828190E002C08C
:1033E000959587952A95E2F780FF74C0EB0162E01E
:1033F00080E893E00E94B31D6C8180E893E00E9416
:10340000B31D6D8180E893E00E94B31D888199818E
:10341000AA81BB816B2F77278827992780E893E0C3
:103420000E94B31D88819981AA81BB81BD01882733
:10343000992780E893E00E94B31D88819981AA8131
:10344000BB81692F7A2F8B2F992780E893E00E9408
:10345000B31D688180E893E00E94B31D688580E811
:1034600093E00E94B31D698580E893E00E94B31D3C
:103470006A8580E893E00E94B31D6B8580E893E045
:103480000E94B31D6C8580E893E00E94B31D6D859A
:1034900080E893E00E94B31D6E8580E893E00E946F
:1034A000B31D6F8580E893E00E94B31D6F8180E8B3
:1034B00093E00E94B31D6E8180E893E00E94B31DEB
:1034C00043E050E063E271E080E893E0DF91CF9168
:1034D0000C94FA1DDF91CF910895CF92DF92EF9275
:1034E000FF920F931F93CF93DF93CDB7DEB7609713
:1034F0000FB6F894DEBF0FBECDBF0E94701883E0F8
:103500000E94D927892B59F460EE72E088E493E099
:103510000E940C2D80916B01816080936B0182E091
:103520000E94D927892B59F460EF72E084E493E07C
:103530000E940C2D80916B01826080936B010E9430
:10354000581488E791E00E94261280E791E00E94DB
:10355000CF1384E791E00E94041585E791E00E9473
:103560003C178CE691E00E94721900EE12E0E12C0B
:10357000F12CCC24C394D12C80916B0190E00E2CC3
:1035800002C0959587950A94E2F780FF1EC0C80196
:103590000E94E112B80185E791E00E947107B8012D
:1035A00080E791E00E94DF08B8018CE691E00E947C
:1035B000E519C6010E2C01C0880F0A94EAF7809520
:1035C00090916B01892380936B018FEFE81AF80AC1
:1035D000005F1F4F83E0E816F10471F611E080915F
:1035E0005B02882339F1112329F16AE572E0CE01EB
:1035F00001960E9409038091000180FF14C08D8113
:10360000813041F0823079F4BE016F5F7F4F84E4F6
:1036100093E005C0BE016F5F7F4F88E493E00E9496
:103620004A2D882329F08AE592E00E943003812FF9
:10363000182FD5CF60960FB6F894DEBF0FBECDBF62
:10364000DF91CF911F910F91FF90EF90DF90CF907E
:1036500008955058BB27AA270E94411B0C94BB1CFD
:103660000E94AD1C38F00E94B41C20F039F49F3F3A
:1036700019F426F40C94AA1C0EF4E095E7FB0C94C4
:10368000A41CE92F0E94CC1C58F3BA1762077307D9
:103690008407950720F079F4A6F50C94EE1C0EF43F
:1036A000E0950B2EBA2FA02D0B01B90190010C0152
:1036B000CA01A0011124FF27591B99F0593F50F46A
:1036C000503E68F11A16F040A22F232F342F4427C2
:1036D000585FF3CF469537952795A795F0405395BA
:1036E000C9F77EF41F16BA0B620B730B840BBAF08A
:1036F0009150A1F0FF0FBB1F661F771F881FC2F7F5
:103700000EC0BA0F621F731F841F48F48795779508
:103710006795B795F7959E3F08F0B0CF9395880FC2
:1037200008F09927EE0F9795879508950E94801CC1
:1037300008F481E008950E94AF1B0C94BB1C0E940A
:10374000B41C58F00E94AD1C40F029F45F3F29F0F2
:103750000C94A41C51110C94EF1C0C94AA1C0E94F4
:10376000CC1C68F39923B1F3552391F3951B550BAA
:10377000BB27AA2762177307840738F09F5F5F4F44
:10378000220F331F441FAA1FA9F335D00E2E3AF083
:10379000E0E832D091505040E695001CCAF72BD09B
:1037A000FE2F29D0660F771F881FBB1F26173707EC
:1037B0004807AB07B0E809F0BB0B802DBF01FF271E
:1037C00093585F4F3AF09E3F510578F00C94A41C3B
:1037D0000C94EF1C5F3FE4F3983ED4F38695779505
:1037E0006795B795F7959F5FC9F7880F911D9695D7
:1037F000879597F90895E1E0660F771F881FBB1F33
:10380000621773078407BA0720F0621B730B840BDF
:10381000BA0BEE1F88F7E09508950E94141C689477
:10382000B1110C94EF1C08950E94D41C88F09F578E
:1038300098F0B92F9927B751B0F0E1F0660F771FD4
:10384000881F991F1AF0BA95C9F714C0B13091F0CA
:103850000E94EE1CB1E008950C94EE1C672F782FA7
:103860008827B85F39F0B93FCCF38695779567958F
:10387000B395D9F73EF490958095709561957F4FFB
:103880008F4F9F4F0895E89409C097FB3EF49095A1
:103890008095709561957F4F8F4F9F4F9923A9F029
:1038A000F92F96E9BB279395F695879577956795B8
:1038B000B795F111F8CFFAF4BB0F11F460FF1BC0FC
:1038C0006F5F7F4F8F4F9F4F16C0882311F096E98F
:1038D00011C0772321F09EE8872F762F05C066233D
:1038E00071F096E8862F70E060E02AF09A95660FF6
:1038F000771F881FDAF7880F9695879597F90895AF
:10390000990F0008550FAA0BE0E8FEEF16161706F0
:10391000E807F907C0F012161306E407F50798F058
:10392000621B730B840B950B39F40A2661F0232B71
:10393000242B252B21F408950A2609F4A140A695ED
:103940008FEF811D811D089597F99F6780E870E0D2
:1039500060E008959FEF80EC089500240A94161605
:10396000170618060906089500240A94121613066D
:10397000140605060895092E0394000C11F48823FB
:1039800052F0BB0F40F4BF2B11F460FF04C06F5F17
:103990007F4F8F4F9F4F089557FD9058440F551FED
:1039A00059F05F3F71F04795880F97FB991F61F0C1
:1039B0009F3F79F087950895121613061406551F38
:1039C000F2CF4695F1DF08C0161617061806991FA4
:1039D000F1CF86957105610508940895E894BB2799
:1039E00066277727CB0197F908950E94801C08F479
:1039F0008FEF08950E940D1D0C94BB1C0E94AD1CFE
:103A000038F00E94B41C20F0952311F00C94A41CF3
:103A10000C94AA1C11240C94EF1C0E94CC1C70F373
:103A2000959FC1F3950F50E0551F629FF001729F63
:103A3000BB27F00DB11D639FAA27F00DB11DAA1F72
:103A4000649F6627B00DA11D661F829F2227B00DBF
:103A5000A11D621F739FB00DA11D621F839FA00D4A
:103A6000611D221F749F3327A00D611D231F849F9A
:103A7000600D211D822F762F6A2F11249F575040F1
:103A80009AF0F1F088234AF0EE0FFF1FBB1F661F6C
:103A9000771F881F91505040A9F79E3F510580F035
:103AA0000C94A41C0C94EF1C5F3FE4F3983ED4F3F9
:103AB000869577956795B795F795E7959F5FC1F7D9
:103AC000FE2B880F911D9695879597F908950E9472
:103AD0009B1D30F09F3710F40C94EF1C0C94721D5A
:103AE0000C948D1D882371F4772321F09850872B37
:103AF000762F07C0662311F499270DC09051862BAD
:103B000070E060E02AF09A95660F771F881FDAF759
:103B1000880F9695879597F908959F3F31F09150BA
:103B200020F4879577956795B795880F911D9695A1
:103B3000879597F908950E94D41CA0F0BEE7B917A5
:103B400088F4BB279F3860F41616B11D672F782FB5
:103B50008827985FF7CF869577956795B11D9395E0
:103B60009639C8F30895CF93DF931F92CDB7DEB790
:103B70006983DC01ED91FC910280F381E02D41E04D
:103B800050E0BE016F5F7F4F09950F90DF91CF919D
:103B90000895CF93DF93EC018C859D8597FF05C039
:103BA00082E00E94B6219D878C878C859D85DF9160
:103BB000CF91089583E00C944824FC018485958579
:103BC00097FD06C082E00E94612190E00196089571
:103BD00082E00E94612190E00895FC018485958532
:103BE00097FD05C02FEF3FEF35872487089582E0CA
:103BF0000C94B621CF93DF93EC0180910D018823C3
:103C000031F083E00E94E7211816190634F081E0B4
:103C100090E09B838A8380E090E0DF91CF910895CC
:103C2000FC0190819E5F908342E450E06FEB73E073
:103C300080E80C948722FC0181819081913A59F4AB
:103C4000813209F05CC047E050E066E071E080E05E
:103C50000E94872252C0913209F051C0833269F428
:103C600082819381A0E0B0E08093020190930301F0
:103C7000A0930401B093050140C0803239F467E09D
:103C800070E086E091E00E94AE2205C08232A9F584
:103C9000828180930D018091D003882319F0EEEF8B
:103CA000FAE002C0E0E0F8E080910601909107019F
:103CB000A0910801B0910901803B9440A105B10594
:103CC00001F580910D0180FD1CC0EE3F2AE0F20756
:103CD00031F0808191819093FF0A8093FE0A87E7FB
:103CE00097E7918380839BE088E10FB6F894A895CD
:103CF000809360000FBE9093600081E0089580E0A3
:103D000008950FB6F894A89580916000886180931B
:103D10006000109260000FBEA895EE3F8AE0F807A1
:103D200039F08091FE0A9091FF0A91838083E5CF5C
:103D30001092FF0A1092FE0AE0CF2FEF3FEFFC0136
:103D4000358724870895E0E8F3E01382128288EE35
:103D500093E0A0E0B0E084839583A683B7838BE4EF
:103D600091E0918380838FEF9FEF958784870895FB
:103D7000FC01918D228D892F90E0805C9F4F821BEA
:103D800091098F7399270895FC01918D828D981761
:103D900031F0828DE80FF11D858D90E008958FEF51
:103DA0009FEF0895FC01918D828D981761F0828DAF
:103DB000DF01A80FB11D5D968C91928D9F5F9F735F
:103DC000928F90E008958FEF9FEF08958BE390E23C
:103DD000892B49F080E090E0892B29F00E943B205C
:103DE00081110C9400000895FC01848DDF01A80F5F
:103DF000B11DA35ABF4F2C91848D90E001968F7313
:103E00009927848FA689B7892C93A089B1898C9131
:103E100080648C93938D848D981306C00288F389F7
:103E2000E02D80818F7D80830895EF92FF920F9324
:103E30001F93CF93DF93EC0181E0888F9B8D8C8D56
:103E4000981305C0E889F989808185FD24C0F62E84
:103E50000B8D10E00F5F1F4F0F731127E02E8C8D1D
:103E6000E8120CC00FB607FCFACFE889F989808107
:103E700085FFF5CFCE010E94F41EF1CF8B8DFE01A0
:103E8000E80FF11DE35AFF4FF0820B8FEA89FB899F
:103E90008081806207C0EE89FF896083E889F989A3
:103EA00080818064808381E090E0DF91CF911F91D9
:103EB0000F91FF90EF900895CF93DF93EC01888DE1
:103EC0008823C9F0EA89FB89808185FD05C0A8891E
:103ED000B9898C9186FD0FC00FB607FCF5CF8081A4
:103EE00085FFF2CFA889B9898C9185FFEDCFCE01EE
:103EF0000E94F41EE7CFDF91CF910895CF92DF9219
:103F0000EF92FF921F93CF93DF93EC016A017B0145
:103F1000122FE889F98982E080834115514E6105AD
:103F20007105B1F060E079E08DE390E0A7019601C2
:103F30000E94702FDA01C9010197A109B109B69554
:103F4000A795979587959C01211580E13807A8F0E2
:103F5000E889F989108260E874E88EE190E0A701B1
:103F600096010E94702FDA01C9010197A109B109D8
:103F7000B695A795979587959C01EC85FD8530832F
:103F8000EE85FF852083188EEC89FD891083EA89F0
:103F9000FB89808180618083EA89FB8980818860D8
:103FA0008083EA89FB89808180688083EA89FB8934
:103FB00080818F7D8083DF91CF911F91FF90EF9063
:103FC000DF90CF9008951F920F920FB60F92112499
:103FD0002F938F939F93EF93FF93E091E103F091E1
:103FE000E2038081E091E703F091E80382FD12C0D3
:103FF00090818091EA038F5F8F732091EB0382178A
:1040000051F0E091EA03F0E0EF52FC4F958F80937E
:10401000EA0301C08081FF91EF919F918F912F91D1
:104020000F900FBE0F901F9018951F920F920FB612
:104030000F9211242F933F934F935F936F937F932E
:104040008F939F93AF93BF93EF93FF9381ED93E093
:104050000E94F41EFF91EF91BF91AF919F918F91BC
:104060007F916F915F914F913F912F910F900FBE74
:104070000F901F90189581ED93E00E94B81E21E0EB
:10408000892B09F420E0822F0895E1EDF3E01382FB
:10409000128288EE93E0A0E0B0E084839583A6834B
:1040A000B7838BE591E0918380838DEC90E09587D9
:1040B00084878CEC90E09787868788EC90E0918BE2
:1040C000808B89EC90E0938B828B8AEC90E0958BCF
:1040D000848B8EEC90E0978B868B118E128E138ED4
:1040E000148E089508950E94DB260E9472208EE6A9
:1040F00094E00E94D3240E949D17C6EEDEE10E9448
:104100006D1A2097E1F30E94E61EF9CFCF92DF925D
:10411000EF92FF920F931F93CF93DF936C017A017D
:104120008B01C0E0D0E0CE15DF0581F0D8016D91A4
:104130008D01D601ED91FC910190F081E02DC60139
:104140000995892B11F02196EECF7E01C701DF91F1
:10415000CF911F910F91FF90EF90DF90CF90089536
:10416000615030F02091F100FC0120830196F8CFDE
:10417000289884E6809377040895409172045091C2
:104180007304209170043091710442175307B4F402
:104190009091E8009570E1F39091E80092FD19C0CC
:1041A0008093F100809172049091730401968F7353
:1041B0009927892B19F48EEF8093E800809172047F
:1041C000909173040196909373048093720481E03C
:1041D000089580E00895DF92EF92FF920F931F936E
:1041E000CF93DF93D82EF92EE42E062F10E0C801CE
:1041F0000196880F0E94BD2083E00E94BD20CD2D36
:10420000DF2D0C0F1D1FC017D10789F0E7FE03C07B
:10421000FE01849101C088810E94BD20F82E80E0BB
:104220000E94BD208F2121968111EDCF01C081E038
:10423000DF91CF911F910F91FF90EF90DF90089544
:104240008091D70081608093D70080EA8093D80066
:1042500089B5806189BD89B5826089BD09B400FED8
:10426000FDCF61E070E080E090E00E949F268091A9
:10427000D8008F7C80618093D8008091E000807F9F
:104280008093E0000895CF93DF931F92CDB7DEB700
:104290001982CE0101960E94101E0E94282FBE0195
:1042A0006F5F7F4F0E94A32E89810F90DF91CF9186
:1042B00008952FB7FC012083F89467706093E9009C
:1042C0000895CF93DF931F92CDB7DEB7682FCE014D
:1042D00001960E9459218091F20099819FBF0F9011
:1042E000DF91CF910895EF92FF920F931F93CF9399
:1042F000DF931F92CDB7DEB790917604992311F02A
:1043000057FF03C08FEF9FEF29C08A017B01682F01
:10431000CE0101960E9459212091F20030E002174F
:1043200013070CF49801822FF70194E6815038F0BE
:104330002898909377044091F1004193F7CF21158D
:10434000310521F08091F200882321F089818FBF0F
:10435000C90104C08BE68093E800F8CF0F90DF918D
:10436000CF911F910F91FF90EF900895CF93DF931E
:104370001F92CDB7DEB741E050E0BE016F5F7F4FC7
:104380000E947321019719F4898190E002C08FEF98
:104390009FEF0F90DF91CF910895CF93DF931F92FE
:1043A000CDB7DEB7682FCE0101960E9459219091BA
:1043B000E800892F807295FF04C09091F2008FE38E
:1043C000891B99819FBF0F90DF91CF9108956F92C4
:1043D0007F928F929F92AF92BF92CF92DF92EF9295
:1043E000FF920F931F93CF93DF931F92CDB7DEB74A
:1043F000A82E6B01B42E052F80917604811103C085
:104400008FEF9FEF69C08091740480FF05C0809199
:10441000E00082608093E000EB2CF02E8AEF982E73
:104420008A2D8072782E9AE3892E8A2D8074682EC8
:10443000E114F10409F446C08A2D0E94CD21182F01
:1044400081110AC09A949920D9F261E070E080E06D
:1044500090E00E949F26ECCF90E0E816F9060CF45D
:104460001E2D6A2DCE0101960E9459218091E800EF
:1044700085FF25C0812F90E0E81AF90A772029F0FE
:104480001150A0F01092F100FBCFF601A7FE0AC078
:10449000115050F024912093F1003196F9CF2191E1
:1044A0002093F1001150D8F7C80ED91E8091E80072
:1044B00085FF0FC0E114F10411F461100AC0898175
:1044C0008FBFB6CF5D9884E6809378048B2D902FB4
:1044D00003C08092E800F3CF0F90DF91CF911F913E
:1044E0000F91FF90EF90DF90CF90BF90AF909F9093
:1044F0008F907F906F9008951092E900109273044E
:104500001092720490937104809370040895DF9266
:10451000EF92FF920F931F93CF93DF93D82E8A01D0
:104520007B01E40EF51EEB01CE15DF0571F0D7FE21
:1045300003C0FE01849101C088810E94BD202196A4
:104540008111F2CF8FEF9FEF01C0C801DF91CF91B2
:104550001F910F91FF90EF90DF900895AF92BF925F
:10456000DF92EF92FF920F931F93CF93DF935C0143
:104570008B01EB019BEFD92E2097C1F07E01C13456
:10458000D1051CF080E4E82EF12C8091E80082FF38
:10459000FCCFC8018C1B9D0B6E2D8A0D9B1D0E94AC
:1045A000B020D092E800CE19DF09E6CFC801DF9134
:1045B000CF911F910F91FF90EF90DF90BF90AF9040
:1045C00008951F920F920FB60F921124CF92DF928F
:1045D000EF92FF920F931F932F933F934F935F930D
:1045E0006F937F938F939F93AF93BF93EF93FF93BB
:1045F000CF93DF93CDB7DEB76C97DEBFCDBF109200
:10460000E9008091E80083FF24C168E0CE0145966F
:104610000E94B02082EF8093E8008D8987FF05C05B
:104620009091E80090FFFCCF03C09EEF9093E800CC
:10463000982F907609F0E5C09E894F89588D2F8973
:10464000188D91110CC0803829F4809175048093E5
:10465000F10002C01092F1001092F100F3C091300D
:1046600051F48111EFC04130510509F0EBC0809148
:1046700075048D7F0BC0933061F48111E3C041302C
:10468000510509F0DFC08091750482608093750444
:10469000D9C0953049F48091E80080FFFCCF822F8B
:1046A00080688093E300CEC0963009F07DC0EB8C2B
:1046B000FC8C123069F580E090E00E947C220E9420
:1046C000432199E09E012F5F3F4F6901F901292F96
:1046D00011922A95E9F799831A8391E09E8390EAD3
:1046E00098879AEF99872091720430917304275F1D
:1046F0003F4F3C832B838D83C7010E947C2249E07E
:1047000050E0B60180E00E9487220E9443219AC0B7
:10471000C7010E947C220E94282FBE016B5E7F4F42
:104720000E94CC2E009719F00CF08CC08FC0113075
:1047300071F48B8D9C8D089719F481E080936F0440
:1047400080916F04811173C063E174E075C0133010
:1047500009F07CC08F89882309F46CC0823029F469
:1047600040E860E181E394E006C0813039F440E83C
:104770006BE085E294E00E94EB2056C0833009F0A4
:1047800065C00E94282F8E010F5F1F4FB8010E9445
:10479000EB2EF80101900020E9F73197BF01601B73
:1047A000710B40E0C801E7CF973009F44FC0983053
:1047B00021F481E08093F10045C0993009F042C0B6
:1047C000837009F043C0EFE0F1E081E031E096E36F
:1047D0002081211109C08EE78093EA001092EA003F
:1047E0008F89809376042EC08093E9003093EB008C
:1047F00021912093EC009093ED008F5F873041F77B
:10480000EACF8B8D9C8D0E947C22898D811105C001
:10481000CE0145960E941B1E07C00E94282FBE0194
:104820006B5E7F4F0E940A2F882381F00BC061E0EE
:1048300074E002C062E474E0FB01449150E080E85F
:104840000E9487228EEF8093E80003C081E280936C
:10485000EB006C960FB6F894DEBF0FBECDBFDF91B4
:10486000CF91FF91EF91BF91AF919F918F917F91E8
:104870006F915F914F913F912F911F910F91FF90F9
:10488000EF90DF90CF900F900FBE0F901F90189574
:104890008093E9008091F200882319F08AE38093E5
:1048A000E80008951F920F920FB60F9211242F93D4
:1048B0003F934F935F936F937F938F939F93AF93A8
:1048C000BF93CF93EF93FF93C091E1008091E100FC
:1048D000837F8093E100C3FF0FC01092E90081E065
:1048E0008093EB001092EC0082E38093ED00109235
:1048F000760488E08093F000C2FF19C083E00E9434
:10490000482480917804882339F08091780481507C
:1049100080937804882389F180917704882339F083
:1049200080917704815080937704882341F1C4FFFC
:1049300010C08091E2008E7E81608093E2008091C1
:10494000E1008F7E8093E100809174048E7E80610F
:1049500011C0C0FF16C08091E2008E7E80618093FE
:10496000E2008091E1008E7E8093E10080917404EA
:104970008E7E81608093740404C05D9ACDCF289AA6
:10498000D6CFFF91EF91CF91BF91AF919F918F9132
:104990007F916F915F914F913F912F910F900FBE3B
:1049A0000F901F9018951092760410927504109233
:1049B00074040E9420218091E1008E7E8093E100AA
:1049C0008DE08093E200559A209AEEEFFFE7859103
:1049D00094918B3F9C4D19F481E08093D00308950E
:1049E0000895853008F04CC0E82FF0E0EE0FFF1F6F
:1049F000EB5EFE4F718360838230E1F018F481300A
:104A000069F004C0833019F1843071F1809169003C
:104A10008C7F482B40936900E89A08958091690043
:104A2000837F440F551F440F551F482B4093690047
:104A3000E99A0895809169008F7C34E0440F551FF6
:104A40003A95E1F7482B40936900EA9A08958091DE
:104A500069008F7326E0440F551F2A95E1F7482B14
:104A600040936900EB9A089580916A008F7C94E0EE
:104A7000440F551F9A95E1F7482B40936A00EE9A30
:104A800008958530E8F4823061F018F4813039F00F
:104A900004C0833041F0843041F0E89807C0E998C1
:104AA00005C0EA9803C0EB9801C0EE98E82FF0E04B
:104AB000EE0FFF1FEB5EFE4F80EF94E29183808349
:104AC00008951F920F920FB60F9211242F933F93C8
:104AD0004F935F936F937F938F939F93AF93BF9306
:104AE000EF93FF93E0911501F09116010995FF9165
:104AF000EF91BF91AF919F918F917F916F915F9156
:104B00004F913F912F910F900FBE0F901F901895CE
:104B10001F920F920FB60F9211242F933F934F9332
:104B20005F936F937F938F939F93AF93BF93EF9315
:104B3000FF93E0911701F09118010995FF91EF9112
:104B4000BF91AF919F918F917F916F915F914F91A5
:104B50003F912F910F900FBE0F901F9018951F92AD
:104B60000F920FB60F9211242F933F934F935F93A1
:104B70006F937F938F939F93AF93BF93EF93FF9325
:104B8000E0911901F0911A010995FF91EF91BF9100
:104B9000AF919F918F917F916F915F914F913F91D5
:104BA0002F910F900FBE0F901F9018951F920F928C
:104BB0000FB60F9211242F933F934F935F936F93F0
:104BC0007F938F939F93AF93BF93EF93FF93E09166
:104BD0001B01F0911C010995FF91EF91BF91AF91DD
:104BE0009F918F917F916F915F914F913F912F9105
:104BF0000F900FBE0F901F9018951F920F920FB637
:104C00000F9211242F933F934F935F936F937F9352
:104C10008F939F93AF93BF93EF93FF93E0911D0109
:104C2000F0911E010995FF91EF91BF91AF919F9176
:104C30008F917F916F915F914F913F912F910F9045
:104C40000FBE0F901F9018951F920F920FB60F92E4
:104C500011242F933F938F939F93AF93BF93809192
:104C60007A0490917B04A0917C04B0917D043091F2
:104C7000790423E0230F2D3720F40196A11DB11DE7
:104C800005C026E8230F0296A11DB11D20937904CB
:104C900080937A0490937B04A0937C04B0937D046A
:104CA00080917E0490917F04A0918004B091810452
:104CB0000196A11DB11D80937E0490937F04A09363
:104CC0008004B0938104BF91AF919F918F913F91E8
:104CD0002F910F900FBE0F901F9018952FB7F8943B
:104CE00060917A0470917B0480917C0490917D04A2
:104CF0002FBF08953FB7F89480917E0490917F0470
:104D0000A0918004B091810426B5A89B05C02F3FD7
:104D100019F00196A11DB11D3FBFBA2FA92F982FE1
:104D20008827820F911DA11DB11DBC01CD0142E05C
:104D3000660F771F881F991F4A95D1F708958F92A4
:104D40009F92AF92BF92CF92DF92EF92FF926B0150
:104D50007C010E947A264B015C01C114D104E1045C
:104D6000F10401F10E94A22E0E947A26DC01CB01FF
:104D700088199909AA09BB09883E9340A105B10584
:104D800060F321E0C21AD108E108F10888EE880E2C
:104D900083E0981EA11CB11CC114D104E104F104EC
:104DA00019F7DBCFFF90EF90DF90CF90BF90AF90DF
:104DB0009F908F900895789484B5826084BD84B567
:104DC000816084BD85B5826085BD85B5816085BD06
:104DD000EEE6F0E0808181608083E1E8F0E010821F
:104DE000808182608083808181608083E0E8F0E060
:104DF000808181608083E1E9F0E08081826080834E
:104E0000808181608083E0E9F0E08081816080833F
:104E1000E1ECF0E080818460808380818260808327
:104E2000808181608083E3ECF0E080818160808319
:104E3000E0ECF0E0808182608083E2ECF0E0808151
:104E400081608083EAE7F0E08081846080838081F4
:104E5000826080838081816080838081806880839C
:104E6000089590E0FC013197EF30F105B0F5E95974
:104E7000FF4F0C94922F809180008F7703C0809118
:104E800080008F7D80938000089580918000877FCF
:104E9000F9CF84B58F7702C084B58F7D84BD089526
:104EA000809190008F7707C0809190008F7D03C024
:104EB00080919000877F8093900008958091C0003A
:104EC0008F7703C08091C0008F7D8093C0000895CC
:104ED0008091C200877F8093C2000895CF93DF93B3
:104EE00090E0FC01EC59FB4F2491FC01EE57FB4F85
:104EF0008491882361F190E0880F991FFC01E454AC
:104F0000FB4FC591D491FC01E255FB4FA591B491A3
:104F1000611109C09FB7F894888120958223888306
:104F2000EC912E230BC0623061F49FB7F894888116
:104F3000322F309583238883EC912E2B2C939FBFA7
:104F400006C08FB7F894E8812E2B28838FBFDF919E
:104F5000CF9108951F93CF93DF93282F30E0F9016D
:104F6000EA5BFB4F8491F901EC59FB4FD491F901B5
:104F7000EE57FB4FC491CC23C1F0162F81110E9434
:104F80003127EC2FF0E0EE0FFF1FE255FB4FA5910C
:104F9000B4919FB7F894111104C08C91D095D82387
:104FA00002C0EC91DE2BDC939FBFDF91CF911F916C
:104FB0000895CF93DF93282F30E0F901EA5BFB4F90
:104FC0008491F901EC59FB4FD491F901EE57FB4F55
:104FD000C491CC2391F081110E943127EC2FF0E095
:104FE000EE0FFF1FE056FB4FA591B491EC91ED231E
:104FF00081E090E021F480E002C080E090E0DF9169
:10500000CF9108958EBD00000DB407FEFDCF8EB583
:105010000895FC016083418322830895CF93DF9339
:10502000EC0161E08FE00E946E2760E08EE00E945C
:105030006E2761E080E10E946E2761E088810E9416
:105040006E2761E089810E946E270E946C2E8CB5CC
:10505000837F8CBD8CB58C7F8CBD8DB581608DBD03
:105060008CB58F7D8CBD60E089810E94AA2762E3A8
:1050700070E080E090E00E949F2661E089810E94BC
:10508000AA2762E370E080E090E0DF91CF910C947A
:105090009F264F925F926F927F928F929F92AF92D4
:1050A000BF92EF92FF920F931F93CF93DF938C01E8
:1050B0006132710509F491C080E090E00E94431CC8
:1050C0009B01AC0160E070E080E89FE30E949B1BC5
:1050D00020E030E04AE754E40E94FA1C2B013C0136
:1050E000C1E0D0E0EC2EEA94BE010D2E000C880B3E
:1050F000990B0E94451C9B01AC010E942A1B20E0D9
:1051000030E040E85DE30E94FA1C9B01AC01C30162
:10511000B2010E949B1B4B015C0120E030E048EC97
:1051200051E40E94961B1816CCF0C501B4010E94F0
:105130000D1CF62E7727072E000C880B990B0E946A
:10514000451C9B01AC01C501B4010E94291B20E054
:1051500030E0A9010E94961B882339F02196C930BE
:10516000D10509F0BFCF38E0E32E6F2D70E080E06D
:1051700090E00E94451C2DEC3CEC4CE45FE30E9467
:10518000FA1C0E94141C862F90E0EC012197D7FD99
:10519000EC01D595C7956150962F9C1B8F2D861BD2
:1051A0004FEF480F292F30E0FE01E20FF31F642F6D
:1051B00070E0E617F7070CF485C0423008F482C0AF
:1051C0002150310993E0220F331F9A95E1F7C15026
:1051D000C068C22BDEEFD80F04C0D7E0CEEB89E069
:1051E000E82E60E0F80180810E94AA2761E070E06B
:1051F00080E090E00E949F2682E00E9402288AE2DE
:105200000E9402288E2D0E94022861E070E080E05A
:1052100090E00E949F2661E0F80180810E94AA2709
:1052200061E070E080E090E00E949F2660E0F8017D
:1052300080810E94AA2761E070E080E090E00E94F7
:105240009F2682E00E94022889E20E9402288C2F79
:105250000E94022861E070E080E090E00E949F26BA
:1052600061E0F80180810E94AA2761E070E080E09F
:1052700090E00E949F2660E0F80180810E94AA27AA
:1052800061E070E080E090E00E949F2682E00E9452
:10529000022888E20E9402288D2F0E94022861E0E5
:1052A00070E080E090E00E949F2661E0F80180813C
:1052B0000E94AA2761E070E080E090E00E949F26B3
:1052C00081E001C080E0DF91CF911F910F91FF90AD
:1052D000EF90BF90AF909F908F907F906F905F9076
:1052E0004F900895FF920F931F93CF93DF93EC019C
:1052F000F62E142F022F60E088810E94AA2785E0F5
:105300000E9402288F2D0E940228802F0E940228CE
:10531000812F0E94022861E08881DF91CF911F9147
:105320000F91FF900C94AA271F93CF93DF93EC016A
:10533000611102C010E001C013E060E088810E94AA
:10534000AA2785E00E9402288BE20E94022883E0BF
:105350000E940228812F0E94022861E08881DF914B
:10536000CF911F910C94AA270F931F93CF938C0179
:105370006230710571F02CF46130710569F4C0E0A0
:105380000BC06430710539F06830710529F4C3E051
:1053900003C0C1E001C0C2E060E0F80180810E946A
:1053A000AA2785E00E9402288FE00E94022883E05D
:1053B0000E9402288C2F0E94022861E0F80180815F
:1053C000CF911F910F910C94AA270F931F93CF9306
:1053D0008C01623079F030F4662351F0613069F469
:1053E000C0E00BC0633041F0643039F4C0E405C064
:1053F000C0E803C0C0E201C0C0E660E0F8018081FF
:105400000E94AA2785E00E9402288FE00E940228BD
:1054100080EE0E9402288C2F0E94022861E0F80191
:105420008081CF911F910F910C94AA271F93CF9346
:10543000DF93EC0160E088810E94AA2780EA0E9445
:1054400002288FEF0E940228182F61E088810E94B5
:10545000AA27812FDF91CF911F9108951F93CF939A
:10546000DF93EC01162F60E088810E94AA2783E079
:105470000E940228812F0E9402288FEF0E9402289A
:10548000182F61E088810E94AA27812FDF91CF9198
:105490001F910895DF92EF92FF920F931F93CF9386
:1054A000DF93EC01D62EF42E122F60E088810E944B
:1054B000AA2761E070E080E090E00E949F2682E0F1
:1054C0000E9402288D2D0E9402288F2D0E94022802
:1054D000812F0E940228802F0E9402288E2D0E9478
:1054E000022861E070E080E090E00E949F2661E089
:1054F00088810E94AA2761E070E080E090E0DF915F
:10550000CF911F910F91FF90EF90DF900C949F2609
:10551000EF920F93CF93DF93EC01E12C00E020E0BA
:1055200040E060E20E944A2A20E040E064E2CE01CE
:105530000E944A2ADF91CF910F91EF9008954F92E8
:105540005F926F927F928F929F92AF92BF92DF9203
:10555000EF92FF920F931F93CF93DF93EC01D62E20
:1055600029013A014701580160E00E94E529CE0176
:105570000E94882A23E040E06CE2CE010E9472295A
:105580004114510461047104A1F4EF28E02AE12AD6
:1055900081F4DD2009F492C028E048E061E0CE010A
:1055A0000E94722928E048E065E0CE010E9472293D
:1055B00085C0D301C201DD20D1F0E3E0880F991F3F
:1055C000AA1FBB1FEA95D1F74B2FD301C201FBE005
:1055D000880F991FAA1FBB1FFA95D1F78B2F807ECA
:1055E000262D23702860282B052DE42C15C065E19D
:1055F000880F991FAA1FBB1F6A95D1F74B2FD301A4
:10560000C2017DE1880F991FAA1FBB1F7A95D1F7B0
:105610002B2F207EE12C00E060E0CE010E944A2A80
:10562000D501C401DD20D1F043E0880F991FAA1FE6
:10563000BB1F4A95D1F74B2FD501C4015BE0880F02
:10564000991FAA1FBB1F5A95D1F78B2F807E2A2D39
:1056500023702860282B092DE82C15C025E1880F20
:10566000991FAA1FBB1F2A95D1F74B2FD501C40143
:105670003DE1880F991FAA1FBB1F3A95D1F72B2F29
:10568000207EE12C00E064E0CE010E944A2AD11085
:1056900004C010E090EED92E03C01FEF83EED82E89
:1056A000E12E012F2D2D4FEF60E2CE010E944A2AFC
:1056B0002D2D4FEF64E2CE010E944A2A61E0CE0117
:1056C000DF91CF911F910F91FF90EF90DF90BF90EE
:1056D000AF909F908F907F906F905F904F900C94C1
:1056E000E5290F931F93CF93DF93EB018A010E946B
:1056F000162A82FD05C081E8F801808318820FC058
:1057000084FD06C082E8F801808381E088830EC0B2
:1057100086FD07C081E8F801808382E0888381E00C
:1057200005C08FEFF8018083888380E0DF91CF91FF
:105730001F910F9108950F931F93CF93DF93EB0168
:105740008A010E94162A80FF02C090E903C081FFEF
:1057500006C094E9F8019083888381E002C08883C1
:1057600080E0DF91CF911F910F9108951F93CF9308
:10577000DF93EC01162F60E088810E94AA27812F19
:105780000E94022861E08881DF91CF911F910C94E3
:10579000AA279F92AF92BF92CF92DF92EF92FF9291
:1057A0000F931F93CF93DF93EC01D42E633030F42B
:1057B000E62FF0E0E959FE4FA08002C0AA24AA9487
:1057C000D901C801CC20D1F063E0880F991FAA1F2E
:1057D000BB1F6A95D1F7BB2ED901C8017BE0880FAA
:1057E000991FAA1FBB1F7A95D1F78B2F807E922F0E
:1057F00093709860C92EC82A912E14C045E1880F75
:10580000991FAA1FBB1F4A95D1F7BB2E5DE1000F60
:10581000111F221F331F5A95D1F7832F807EC82E68
:1058200000E0912C60E088810E94AA278A2D0E94C6
:1058300002288B2D0E9402288C2D0E940228892D7F
:105840000E940228802F0E9402288D2D0E9402288B
:105850008701ED0CF11C0E151F0531F0F801819147
:105860008F010E940228F7CF61E08881DF91CF91FC
:105870001F910F91FF90EF90DF90CF90BF90AF906E
:105880009F900C94AA272F923F924F925F926F9213
:105890007F928F929F92AF92BF92CF92DF92EF92C0
:1058A000FF920F931F93CF93DF934115510509F496
:1058B000A0C02115310509F49CC00115110509F49A
:1058C00098C0E114F10409F494C0E80189016A0167
:1058D000962E5C0160E0FC0180810E94AA27892D40
:1058E0000E9402288FEF0E940228382E8FEF0E941C
:1058F0000228582E8FEF0E940228682E8FEF0E94F8
:105900000228782E8FEF0E9402288F70482E202EBA
:105910004801882D8219841538F48FEF0E940228DF
:10592000F40181934F01F5CF61E0F50180810E9480
:10593000AA27F6014082852D8870F7018083232DE8
:1059400030E0452D50E08823B1F1C901A3E09595E1
:105950008795AA95E1F7092E000CAA0BBB0BCC2466
:10596000D82EE92EFA2E05E0220F331F0A95E1F713
:10597000952D9370292B85E0559547958A95E1F7EC
:10598000440F551F440F551F422B532B052E000C5F
:10599000660B770BDB01CA018C299D29AE29BF2933
:1059A000BA2FA92F982F88278629BA2FA92F982F89
:1059B000882787291AC0C90163E0880F991F6A9553
:1059C000E1F775E0559547957A95E1F7842B952B8E
:1059D000E5E035952795EA95E1F7322F2227822BCE
:1059E000932B092E000CAA0BBB0B88839983AA83E7
:1059F000BB83DF91CF911F910F91FF90EF90DF90CC
:105A0000CF90BF90AF909F908F907F906F905F905E
:105A10004F903F902F900895BF92CF92DF92EF92D8
:105A2000FF920F931F93CF93DF9300D0CDB7DEB7D4
:105A30006C018B01AE014F5F5F4FBE016E5F7F4F08
:105A40000E949B2BB82E8823C1F0C8010E945C2EB7
:105A50008A81F8018683F6018281F80184837801C6
:105A6000F5E0EF0EF11C9801285F3F4FA801495F58
:105A70005F4F6981C6010E94432C8B2D0F900F90C0
:105A8000DF91CF911F910F91FF90EF90DF90CF901A
:105A9000BF9008958F929F92AF92BF92CF92DF9264
:105AA000EF92FF920F931F93CF93DF9300D0CDB768
:105AB000DEB74C015B01AE014E5F5F4FBE016F5F11
:105AC0007F4F0E94712BD82E882399F0750188E0B2
:105AD000E80EF11CF5010081118122813381C5801E
